:100000000C942A000C9434000C9434000C943400AA
:100010000C9434000C9434000C9434000C94340090
:100020000C9434000C9434000C9434000C94340080
:100030000C9434000C9434000C9434000C94340070
:100040000C9434000C9434000C9434000C94340060
:100050000C94340011241FBECFE5D8E0DEBFCDBF25
:100060000E9436000C9477000C9400008FE08ABB4D
:100070001BBA40E050E0A1E0B0E068EC70E014C0D2
:100080002BB3CD01042E02C0880F991F0A94E2F70A
:10009000282B2BBB84EC99E0FB013197F1F70197FA
:1000A000D9F71BBA4F5F5F4F443051054CF32BB368
:1000B000CD01042E02C0880F991F0A94E2F7282B65
:1000C0002BBB84EC99E0FB013197F1F70197D9F74D
:1000D0001BBA84EC99E0FB013197F1F70197D9F74E
:1000E0004150504057FFE3CF40E050E0DDCFF8945F
:0200F000FFCF40
:00000001FF
